:10000000480700207D0F0000790F0000790F0000E5
:1000100000000000000000000000000000000000E0
:10002000000000000000000000000000790F000048
:100030000000000000000000790F0000790F0000B0
:10004000790F0000790F0000790F0000790F000090
:10005000790F0000790F0000790F00000000000008
:10006000790F0000790F0000790F0000790F000070
:10007000790F0000790F0000790F0000C90500001A
:10008000790F0000790F0000790F000010B5064CC1
:100090002378002B07D1054B002B02D0044800E049
:1000A00000BF0123237010BD70000020000000007D
:1000B00024150000084B10B5002B03D00749084851
:1000C00000E000BF07480368002B00D110BD064BBD
:1000D000002BFBD09847F9E70000000074000020D7
:1000E00024150000241500000000000070B5002059
:1000F000084B98470500084CFA218900A047074B98
:10010000186007492800A047064B18600522064BD7
:100110001A6070BD090D00002D11000000000020C4
:1001200040420F000400002010E000E030B5084B12
:100130001C68084A002580214902013807D3002C99
:10014000FBD05460956013680B42FCD0F5E730BDDE
:100150000000002010E000E010B500220023027033
:10016000427000214280017103760262C2618260A6
:100170000373C0246401C481037443748374C3741F
:1001800003752A24035543758375063C0355C284C1
:100190000285C1752B23C1540133C15410BD000029
:1001A000F0B5D6464F464646C0B596B00700160095
:1001B0000160C64A106A80235B00034313620B7818
:1001C0000520DB0705D516B01CBC90469946A24613
:1001D000F0BD0B7817309B07F5D473783B71002B7B
:1001E00004D1BB4A136C04210B4313640023BB608E
:1001F000FB603B61BB76FB763B833B77B54B1F6077
:100200002A23F35C002B05D1337D002B02D101336F
:100210007B7701E000237B773B68984633786A461A
:10022000137069461320AC4B98471320AB4B98478B
:100230002C23F25C002A54D0013BF55C337BEB1895
:10024000DBB2D118C9B28B4221D25219D3B299462E
:10025000A34B9A4603E00135EDB24D4517D00F246C
:100260002C40337BE41850229E4902A8D047092C29
:10027000F1D8A40002ABE05801A900234B70CB7069
:100280008B7001330B70C0B2974B9847E3E7F4894A
:100290005022944902A8924B9847092C13D9737D98
:1002A0009B00DBB242461370B37DDB0172781343CF
:1002B000DBB2424653703379342B00D97BE19B008B
:1002C0008A4AD3589F46A40002ABE05801A90023F4
:1002D0004B70CB708B7001330B70C0B2824B984760
:1002E000DDE7347B50227F4902A87D4B9847092CDB
:1002F00015D9F48950227B4902A8794B9847092CDB
:10030000CDD8A40002ABE05801A900234B70CB70FC
:100310008B7001330B70C0B2734B9847BFE7A400DA
:1003200002ABE05801A900234B70CB708B700133F6
:100330000B70C0B26C4B9847DBE7042310240221FA
:100340001AE0717C337C102416E00623102401216E
:1003500012E00823102400210EE0002330240021A5
:100360000AE000232024002106E0002300240021CD
:1003700002E0022310240121090170220A401343E4
:1003800042469370F37D17203F2B00D91BE7D370B3
:100390003A68537E5BB2002BFBDBF37C728813431D
:1003A0002422B25CD2001343327D92001343B27C0C
:1003B00052001343234342469380337E002B20D0C8
:1003C000102C00D1D9E000D898E0202C00D1B6E064
:1003D000302C16D1F27C002A0AD0F2698032172024
:1003E000FF2A00D9EFE6326A8032FF2A00D9EAE616
:1003F0001720F269FF2A00DDE5E6326AFF2A00DDF8
:10040000E1E639684A7E52B2002AFBDB42461372AB
:100410003A68537E5BB2002BFBDBB38B424693837F
:100420003A68537E5BB2002BFBDB338C424613846D
:100430002C23F35C002B05D0013BDBB217200F2BE4
:1004400000D9C0E62B22B15C17200F2900D9BAE6EB
:100450003868427E52B2002AFBDBF289307B0243CD
:10046000B068024309050A431B0413434246136163
:100470002A23F35C13750F2393751533F35C002B5C
:1004800012D0F38C1A4A1720934200D99BE64246B9
:100490009384328D80231B01D31815499BB28B4264
:1004A00000D990E64346DA84124B1B685B01E022D8
:1004B000D2001340104A516849011268D20E0A4313
:1004C000D2B213434246138500207CE6000400406C
:1004D00000080040C0000020210E0000950D000023
:1004E000A11200006C140000190F00009813000006
:1004F000FF0F00002460800020608000002C00D0EE
:100500007FE7F27C002A0FD0F269802109018C4636
:1005100062442A4917208A4200D954E6326A62446A
:1005200026498A4200D94EE6244A1720F1699142B1
:1005300000DD48E6316A914200DD44E661E7F27C85
:10054000002A0FD0F269802189008C4662441C4940
:1005500017208A4200D936E6326A624418498A4234
:1005600000D930E6164A1720F169914200DD2AE6EB
:10057000316A914200DD26E643E7F27C002A0FD083
:10058000F269802109028C4662440E4917208A4292
:1005900000D918E6326A62440A498A4200D912E652
:1005A000084A1720F169914200DD0CE6316A914258
:1005B00000DD08E625E7172005E6C046FF0F00002E
:1005C000FF030000FFFF000070B52F4B1D682B6874
:1005D0001A7EDC7D1440E20716D4630708D5042395
:1005E0002A681376EB7E9B0702D5AB7E9B0742D42D
:1005F000A30708D502232A681376EB7E5B0702D592
:10060000AB7E5B073BD470BD01221A762A68537E0D
:100610005BB2002BFBDB69698B1C6B61538B9BB25C
:100620000B802B8B013B9BB22B83002B11D06B7F5C
:10063000002BD2D02A68537E5BB2002BFBDB137BEE
:1006400002210B4313732A68537E5BB2002BFBDB42
:10065000C3E701232A6893752B7F052BBDD10023A7
:100660002B77EB7EDB07B8D5AB7EDB07B5D5280053
:10067000AB689847B1E72800EB689847B8E72B6963
:1006800028009847BFE7C046C000002000B583B0EF
:1006900001AB80221A700A785A704A789A708A7868
:1006A000DA701900014B984703B000BD190F000024
:1006B00010B51C000F4B9847012C0FD0002C05D013
:1006C000022C0FD0032C11D0002302E00A4B9847D4
:1006D0000300D22098428041404210BD074B98470A
:1006E0000300F6E7064B98470300F2E7054B9847EF
:1006F0000300EEE7DD0800002509000035090000D1
:10070000450900005509000030B58FB00DA9002340
:100710000B7001254D708B7003201B4B984701AC6B
:1007200020001A4B98470220194B9847194B186024
:1007300003236370FE33FF336380FB3BFF3B237374
:10074000C0235B01E38130232371A574124D220085
:1007500012492800124B98472A68537E5BB2002B3F
:10076000FBDB802109020F4B19600F239375137671
:10077000137802210B431370074B1A68537E5BB248
:10078000002BFBDB0FB030BD8D06000059010000CF
:100790008D1200008C000020C400002000200042C8
:1007A000A101000000E100E030B583B001AC0123FD
:1007B00063700022A270237021000F20044DA8470F
:1007C00021001020A84721001120A84703B030BD08
:1007D0008D06000000B583B001A901234B700022F3
:1007E0008A700B700820024B984703B000BDC046CA
:1007F0008D06000030B52D4B19684B7E5BB2002B87
:10080000FBDB0B691F229343184308614B7E5BB2ED
:10081000002BFBDB4B7E5BB2002BFBDB0B7B022256
:1008200013430B734B7E5BB2002BFBDB01200425D3
:10083000022401E010420AD10B7EDBB202001A4012
:100840001D4200D022431C42F4D02A43F2E70A7E24
:10085000D2B201231340500701D50220034392076F
:1008600001D504221343DB0703D4114B1B681888FE
:1008700030BD4B7E5BB2002BFBDB0D4B1B684A8B04
:100880001A800A4B196801230B760A7ED2B21340F4
:10089000500701D502200343920701D504221343D8
:1008A0005B07E2D502230B76DFE7C046C4000020D9
:1008B0008C00002010B5054B9847054B9847054B19
:1008C000984780225200044B9A6110BD090700002E
:1008D000A9070000D507000000440041002810D0FF
:1008E000802000020E4B986100290FD08021490220
:1008F0000B4B9961002A0ED180229202084B5A615B
:10090000704780200002064B5861EDE780214902C4
:10091000034B5961EEE780229202014B9A61EFE7A7
:100920000044004110B50020014B984710BDC0465F
:10093000F507000010B50220014B984710BDC046D6
:10094000F507000010B50320014B984710BDC046C5
:10095000F507000010B50420014B984710BDC046B4
:10096000F5070000704700000C4B1B68002B06D1F8
:10097000EFF31083002B07D00022094B1A70074AAF
:10098000136801331360704772B6BFF35F8F0022A4
:10099000044B1A700132024B1A70F0E790000020ED
:1009A0009400002008000020084B1A68013A1A60E1
:1009B0001B68002B09D1064B1B78002B05D00122A8
:1009C000044B1A70BFF35F8F62B67047900000202F
:1009D000940000200800002010B5082803D88000EB
:1009E0001C4B1B589F46002032E01B4B18692FE020
:1009F0001A4B1B6A9B059B0F1948D84028E0164BE1
:100A0000586925E0144B1B6800209B0720D513492B
:100A10001022CB681A42FCD00F4B1A6824231340D3
:100A2000042B01D00F4813E000200F4B98470A4BCE
:100A30009B681B041B0C58430AE05023074AD35CF5
:100A400000205B0704D5044BD86801E08020000239
:100A500010BDC046BC1400009800002000080040F3
:100A600000127A00006CDC023D0E000070B50C49EB
:100A70000B6A047885784078012210408001402676
:100A8000B34303432A40D20180208343134303220C
:100A9000224012020348034013430B6270BDC0465C
:100AA00000080040FFFCFFFF082803D88000254B0A
:100AB0001B589F46172044E0234A136A02210B4328
:100AC000136200203DE0204A936902210B439361A9
:100AD000002036E01C4A138A02210B4313820020B7
:100AE0002FE0194A938A02210B439382002028E0C9
:100AF00016490B68022213430B60134B9A841900AA
:100B00000E32CB681A42FCD0104A91680E4BD96263
:100B100052689A6200229A8419001032CB681A42F5
:100B2000FCD00A4B1B689BB2074A9384002008E064
:100B3000054944228B5C022003438B54002000E0D3
:100B400000207047E01400000008004098000020DA
:100B500030B585B0C222D2001A4B9A601A4A536847
:100B60001E218B43536001236A4613700024174DE6
:100B7000E0B26946A8470134182CF9D103A8002433
:100B80004470012585700470114B98470620114B65
:100B90009847114B9847114B1C725C729C72DC7227
:100BA00001956B465C7006236A461370147254728A
:100BB000694600200A4B984700200A4B984705B029
:100BC00030BDC0460008004000400041210E00003A
:100BD0006D0A0000A90A0000E90B000000040040B3
:100BE0000D0C0000C50C0000064A936908210B4358
:100BF00093610122044B1A7019000B781342FCD147
:100C00007047C04600040040000C004070B506006C
:100C100004000D782D0205434B78002B02D0802371
:100C2000DB021D434B7A002B02D080231B031D43A4
:100C30004868012810D9431E184234D1022830D9FF
:100C40000223002201325B009842FBD81202324399
:100C5000140080235B031D430B7A002B02D08023FA
:100C60009B031D43134A53785BB2002BFBDB124BF3
:100C70009847124B1E700F4A53785BB2002BFBDB78
:100C80000C4B9C601A0053785BB2002BFBDB094ACB
:100C90005368802149020B401D435560084B98471B
:100CA00070BD0022D2E70402344380239B021D431F
:100CB000D2E7C046000C004069090000080C004063
:100CC000A909000010B504000B4A53785BB2002B51
:100CD000FBDB0A4B98470A4B1C70074A53785BB200
:100CE000002BFBDB044A516880235B020B435360FB
:100CF000044B984710BDC046000C00406909000035
:100D0000040C0040A909000070B504001A4A537889
:100D10005BB2002BFBDB194B9847194B1C70164A32
:100D200053785BB2002BFBDB134E7068C004C00E1F
:100D3000144B98470500124B1C707668F602F60FAC
:100D4000114B1C700C4A53785BB2002BFBDB0A4B37
:100D50009C682402240C0D4B9847002E07D1012CCF
:100D600007D9210028000A4B9847050001E001340B
:100D7000E540280070BDC046000C00406909000035
:100D8000040C0040D9090000080C0040A90900002B
:100D90002D11000010B50400064B9847064B1C703F
:100DA000064A53888021C9010B435380044B98475E
:100DB00010BDC04669090000020C0040000C004054
:100DC000A909000010B504000F4B98470F4B1C7089
:100DD0000F4A53881B05180F53880E490B40538048
:100DE00053880D490B40538011008022D2014B885B
:100DF0001342FCD106494A880302064802401343C5
:100E00004B80064B984710BD69090000020C00405A
:100E1000000C0040FFF0FFFFFFBFFFFFA90900002B
:100E200010B50C7824020443024B9847A4B2024B3D
:100E30005C8010BDC50D0000000C004010B5040022
:100E4000064B9847064B1C70064B5C882405240F04
:100E5000054B98472000054B984710BD69090000D5
:100E6000020C0040000C0040A9090000090D000020
:100E700030B5D378002B35D11378802B29D01B06C1
:100E800080246402234354780225AC4306D194782D
:100E9000002C20D18024A402234341605478013CDB
:100EA000012C1CD90D042D0CA024E4052C431C435B
:100EB00084620D0CD02424062C431C438462D47815
:100EC000002C22D15B031CD59378012B1ED04161ED
:100ED00017E00023D7E7C024E4022343DDE70D4CED
:100EE0002340DFE741600C04240CA023DB052343EF
:100EF00083620C0CD0231B0623438362D378002B20
:100F000003D15378013B012B02D930BD8161F8E751
:100F10008160FAE7FFFFFBFF10B50A00C10900235B
:100F2000002904D14309DB0105498C4663441F2491
:100F30002040012181401800024B984710BDC04657
:100F400000440041710E00007047000010B5054BD1
:100F50009847054B9847054B9847054B9847054BD5
:100F6000984710BD510B000065090000490F0000B3
:100F7000490F0000490F0000FEE7000010B5264AA7
:100F8000264B9A4211D01A00254B9A420DD2254A7F
:100F900003339B1A9B0801339B0000221F481E4904
:100FA0008C58845004329A42FAD11F4A1F4B9A42FD
:100FB0000AD2D3431D495B1803218B4304339B188A
:100FC000002102C29342FCD1194AFF21194B8B43E5
:100FD0009360FD3990235B00174AD150174B9A7BE1
:100FE0002E318A4320210A439A739A7B0C218A432B
:100FF00008210A439A739A7B03218A4302210A43F8
:101000009A730F4A536880210B4353600D4B9847E6
:101010000D4B9847FEE7C046241500000000002055
:101020007000002004000020700000204803002011
:1010300000ED00E0000000000070004100480041A9
:101040000040004145120000FD1000000300064A68
:101050001268002A04D0044A1068C318136070474D
:101060000249014A1160F6E7B0000020480700205D
:1010700070B5012200210020154B98470023012262
:1010800001210020134CA047134B18700A20134B6A
:101090009847134C2588134B98476D00124BE85224
:1010A0002588124B98476D00114BE8522588114B4B
:1010B00098476D00104BE852238801339BB2C82B30
:1010C00003D90022064B1A8070BD054A1380FBE746
:1010D000DD080000B1060000B60000202D01000070
:1010E000B400002025090000E800002035090000B8
:1010F000B0010020450900007C02002070B5064BBD
:101100009847064B9847064B9847064D064CA8470C
:101110000A20A047FBE7C0464D0F0000ED0000008D
:10112000B5080000711000002D01000000224308E6
:101130008B4274D303098B425FD3030A8B4244D39F
:10114000030B8B4228D3030C8B420DD3FF220902E1
:1011500012BA030C8B4202D31212090265D0030BA0
:101160008B4219D300E0090AC30B8B4201D3CB0396
:10117000C01A5241830B8B4201D38B03C01A5241D8
:10118000430B8B4201D34B03C01A5241030B8B42DA
:1011900001D30B03C01A5241C30A8B4201D3CB02C5
:1011A000C01A5241830A8B4201D38B02C01A5241AA
:1011B000430A8B4201D34B02C01A5241030A8B42AD
:1011C00001D30B02C01A5241CDD2C3098B4201D3C5
:1011D000CB01C01A524183098B4201D38B01C01A43
:1011E000524143098B4201D34B01C01A52410309BA
:1011F0008B4201D30B01C01A5241C3088B4201D369
:10120000CB00C01A524183088B4201D38B00C01A15
:10121000524143088B4201D34B00C01A5241411A3C
:1012200000D20146524110467047FFE701B5002049
:1012300000F006F802BDC0460029F7D076E77047F7
:101240007047C04670B500260C4D0D4C641BA410B1
:10125000A64209D1002600F055F90A4D0A4C641B3C
:10126000A410A64205D170BDB300EB5898470136D3
:10127000EEE7B300EB5898470136F2E7101500008F
:1012800010150000101500001415000010B5034BD8
:101290000100186800F00EF810BDC0460C000020D8
:1012A000002310B59A4200D110BDCC5CC454013368
:1012B000F8E70000032370B5CD1C9D4308350600F8
:1012C0000C2D1ED20C25A9421DD8300000F062F86A
:1012D000254A14682100002919D1244C2368002BC9
:1012E00003D1300000F044F820602900300000F005
:1012F0003FF8431C2CD10C233000336000F04BF836
:1013000003E0002DDFDA0C233360002070BD0B6892
:101310005B1B1AD40B2B03D90B60CC18256003E0A0
:101320008C420ED163681360300000F034F8200066
:1013300007220B30231D9043C31AE7D05A42E250D4
:10134000E4E74B6863600C00EEE70C004968C2E715
:101350000323C41C9C43A042E0D0211A300000F0BB
:1013600007F8431CDAD1C6E7B8000020BC00002013
:10137000002370B5064C050008002360FFF766FEE9
:10138000431C03D12368002B00D02B6070BDC046E6
:1013900044030020704770476A030000B605000050
:1013A000B6050000B6050000B6050000B605000051
:1013B000B6050000B6050000B6050000B605000041
:1013C000B6050000B6050000B6050000B605000031
:1013D000B6050000B605000052030000B605000087
:1013E000B6050000B6050000B6050000B605000011
:1013F000B6050000B6050000B6050000B605000001
:10140000B6050000B6050000B6050000B6050000F0
:10141000B6050000B605000062030000B605000036
:10142000B6050000B6050000B6050000B6050000D0
:10143000B6050000B6050000B6050000B6050000C0
:10144000B6050000B6050000B6050000B6050000B0
:10145000B6050000B60500005A0300007203000044
:101460003A0300004A0300004203000002000000AB
:10147000030000000400000005000000060000005A
:10148000070000000E0000000F0000000A0000002E
:101490000B000000FFFF0000FFFF0000FFFF000047
:1014A000FFFF0000FFFF0000FFFF0000FFFF000044
:1014B000FFFF0000FFFF0000FFFF0000EA0900003F
:1014C000E6090000E60900004C0A00004C0A000092
:1014D000FE090000F0090000040A00003A0A0000BA
:1014E000D40A0000B40A0000B40A0000400B000057
:1014F000C60A0000E20A0000B80A0000F00A000074
:10150000300B0000F8B5C046F8BC08BC9E467047DA
:10151000B5000000F8B5C046F8BC08BC9E46704750
:041520008D0000003A
:10152400401F00000800000001000000100000201F
:1015340000000000000000000000000000000000A7
:101544000000000000000000000000000000000097
:101554000000000000000000000000000000000087
:101564000000000000000000000000000000000077
:101574000000000000000000000000000000000067
:101584000000000000000000000000000000000057
:0400000300000F7D6D
:00000001FF
