:10000000280C0020F9230000F5230000F523000050
:1000100000000000000000000000000000000000E0
:10002000000000000000000000000000F5230000B8
:100030000000000000000000F5230000F523000090
:10004000F5230000F5230000F5230000F523000050
:10005000F5230000F52300007907000000000000F0
:10006000F52300000D1100001D1100002D110000EE
:10007000F52300005101000061010000B5060000F9
:10008000F5230000F5230000F523000010B5064C11
:100090002378002B07D1054B002B02D0044800E049
:1000A00000BF0123237010BD80000020000000006D
:1000B00078290000084B10B5002B03D007490848E9
:1000C00000E000BF07480368002B00D110BD064BBD
:1000D000002BFBD09847F9E70000000084000020C7
:1000E00078290000782900000000000070B5800029
:1000F000164BC45823689D7B227E637E13401D40AF
:10010000EB0706D4AB070BD4EB0610D4AB0615D423
:1001100070BD2000A3689847012322689373F1E71C
:100120002000E3689847022322689373ECE72000DD
:1001300023699847102322689373E7E720006369D7
:100140009847236820229A73E2E7C0468401002082
:1001500010B50020014B984710BDC046ED000000CF
:1001600010B50120014B984710BDC046ED000000BE
:10017000F8B500250026154F24E053009B181349BD
:100180005C548C4663445C709C7013E00F48104BC9
:10019000984701200F4B98470134E4B2FF2C0DD053
:1001A0000022D3B2AB42E8D053009B18DE55FB18B7
:1001B0005E709E700132032AF3D1E7E70135EDB29C
:1001C000032D01D03400EBE7F8BDC0469C000020B1
:1001D000751D00001902000070B50020084B9847FB
:1001E0000500084CFA218900A047074B1860074911
:1001F0002800A047064B18600522064B1A6070BD08
:1002000085210000612500000000002040420F0011
:100210000400002010E000E030B5084B1C68084ADC
:10022000002580214902013807D3002CFBD05460FF
:10023000956013680B42FCD0F5E730BD000000204C
:1002400010E000E010B5002200230270427000218F
:100250004280017103760262C26182600373C0242E
:100260006401C481037443748374C37403752A24C2
:10027000035543758375063C0355C2840285C175D9
:100280002B23C1540133C15410BD0000F0B5D64634
:100290004F464646C0B596B0070016000160C64AF4
:1002A000106A80235B00034313620B780520DB0791
:1002B00005D516B01CBC90469946A246F0BD0B78F9
:1002C00017309B07F5D473783B71002B04D1BB4AE0
:1002D000136C04210B4313640023BB60FB603B6180
:1002E000BB76FB763B833B77B54B1F602A23F35CE1
:1002F000002B05D1337D002B02D101337B7701E048
:1003000000237B773B68984633786A4613706946CA
:100310001320AC4B98471320AB4B98472C23F25C2F
:10032000002A54D0013BF55C337BEB18DBB2D118CB
:10033000C9B28B4221D25219D3B29946A34B9A46E5
:1003400003E00135EDB24D4517D00F242C40337B2F
:10035000E41850229E4902A8D047092CF1D8A400E5
:1003600002ABE05801A900234B70CB708B700133B6
:100370000B70C0B2974B9847E3E7F4895022944939
:1003800002A8924B9847092C13D9737D9B00DBB2CE
:1003900042461370B37DDB0172781343DBB24246F1
:1003A00053703379342B00D97BE19B008A4AD358B0
:1003B0009F46A40002ABE05801A900234B70CB700C
:1003C0008B7001330B70C0B2824B9847DDE7347BF2
:1003D00050227F4902A87D4B9847092C15D9F489F2
:1003E00050227B4902A8794B9847092CCDD8A4000C
:1003F00002ABE05801A900234B70CB708B70013326
:100400000B70C0B2734B9847BFE7A40002ABE05833
:1004100001A900234B70CB708B7001330B70C0B2FD
:100420006C4B9847DBE70423102402211AE0717C0F
:10043000337C102416E006231024012112E0082347
:10044000102400210EE00023302400210AE00023C4
:100450002024002106E000230024002102E00223E2
:1004600010240121090170220A401343424693706F
:10047000F37D17203F2B00D91BE7D3703A68537EDA
:100480005BB2002BFBDBF37C728813432422B25C4B
:10049000D2001343327D92001343B27C52001343C7
:1004A000234342469380337E002B20D0102C00D172
:1004B000D9E000D898E0202C00D1B6E0302C16D13D
:1004C000F27C002A0AD0F26980321720FF2A00D974
:1004D000EFE6326A8032FF2A00D9EAE61720F26995
:1004E000FF2A00DDE5E6326AFF2A00DDE1E6396831
:1004F0004A7E52B2002AFBDB424613723A68537EB0
:100500005BB2002BFBDBB38B424693833A68537E8E
:100510005BB2002BFBDB338C424613842C23F35C51
:10052000002B05D0013BDBB217200F2B00D9C0E612
:100530002B22B15C17200F2900D9BAE63868427E19
:1005400052B2002AFBDBF289307B0243B0680243DF
:1005500009050A431B041343424613612A23F35C33
:1005600013750F2393751533F35C002B12D0F38CA6
:100570001A4A1720934200D99BE642469384328D53
:1005800080231B01D31815499BB28B4200D990E6FA
:100590004346DA84124B1B685B01E022D200134011
:1005A000104A516849011268D20E0A43D2B213436D
:1005B0004246138500207CE600040040000800400D
:1005C0008C0100209D22000011220000D526000091
:1005D000B028000095230000DC270000FF0F00007A
:1005E0002460800020608000002C00D07FE7F27C37
:1005F000002A0FD0F269802109018C4662442A4901
:1006000017208A4200D954E6326A624426498A4257
:1006100000D94EE6244A1720F169914200DD48E6F0
:10062000316A914200DD44E661E7F27C002A0FD096
:10063000F269802189008C4662441C4917208A4255
:1006400000D936E6326A624418498A4200D930E657
:10065000164A1720F169914200DD2AE6316A91427B
:1006600000DD26E643E7F27C002A0FD0F269802104
:1006700009028C4662440E4917208A4200D918E6C6
:10068000326A62440A498A4200D912E6084A1720AF
:10069000F169914200DD0CE6316A914200DD08E625
:1006A00025E7172005E6C046FF0F0000FF03000006
:1006B000FFFF000070B52F4B1D682B681A7EDC7D94
:1006C0001440E20716D4630708D504232A6813767A
:1006D000EB7E9B0702D5AB7E9B0742D4A30708D5D0
:1006E00002232A681376EB7E5B0702D5AB7E5B079D
:1006F0003BD470BD01221A762A68537E5BB2002B70
:10070000FBDB69698B1C6B61538B9BB20B802B8B62
:10071000013B9BB22B83002B11D06B7F002BD2D0DF
:100720002A68537E5BB2002BFBDB137B02210B4359
:1007300013732A68537E5BB2002BFBDBC3E70123F4
:100740002A6893752B7F052BBDD100232B77EB7E79
:10075000DB07B8D5AB7EDB07B5D52800AB6898477B
:10076000B1E72800EB689847B8E72B69280098475D
:10077000BFE7C0468C01002010B5264B984726499C
:100780000B8C072213409B002448185803781A400A
:100790003F23CA540F33CA5CD2B203781B012049ED
:1007A000C91849881F4CE3185B88CB1A4361D307EB
:1007B0000FD501214E23184AD1543E3B4374037C8C
:1007C000DB0703D54368002B00D09847164B9847AA
:1007D00010BD93070DD502214E230F4AD15400239B
:1007E0004374037C9B07F1D58368002BEED09847B8
:1007F000ECE75307EAD504214E23074AD154483B7E
:100800004374037C5B07E1D5C368002BDED09847B7
:10081000DCE7C046E51D000000480041A8000020BC
:1008200090010020C0000020251E0000002303705E
:10083000437003228270C37003717047F8B5CE46CF
:10084000474680B505000E00454B9847454B1B7841
:10085000002B18D1444B5A6920210A435A61DA69A6
:1008600010390A43DA61414B1A880E398A431A80DB
:1008700001221A803E4A5A633E4A9A633E4A1A80CF
:10088000384B01221A70364B9847364B5B68DA07B3
:100890000FD55B08012401221A420BD05B080134FA
:1008A000E4B2052CF8D1354B9847344B98471420C7
:1008B00051E000242B4A51680123A3400B435360AD
:1008C000137A013B13722D4B9847FF2CEDD02C70FF
:1008D000072398461C40254F38339946FC54013372
:1008E000FA5C02218A43FA540124FC541C4B9847B9
:1008F0002B78424613404A46BB543B692A789440C1
:10090000A3433B6132785201602313407278120294
:10091000F82149010A401343B2789205C021090425
:100920000A401343F178002904D007220A40082125
:100930000A4313433279002A01D0102213430B4A91
:1009400053640E4CA0470023AB612B789B000C4AEC
:100950009D50A04700200CBC90469946F8BDC0466B
:10096000E51D000008000020000400400048004190
:1009700090010020C0000020020F0000251E000092
:10098000A800002070B50400194B9847637C052B24
:1009900008D0A3695B889BB2002B07D1154B984701
:1009A000172070BD134B98470520FAE74026124BDD
:1009B0001E60227807231A40104D3F216A54227886
:1009C0000F498A5C13404D22AB5405236374207891
:1009D00000010C4BC018A1693D3A0B4B9847AB5D29
:1009E00002221343AB55034B98470020D9E7C0467A
:1009F000E51D0000251E000000E100E00048004168
:100A00001001002090010020D5260000F0B50A78E2
:100A10000388012632400124A343134303804B780B
:100A2000048803273B405B00062294431C43048058
:100A30008D7804883D40ED0018239C432C430480AE
:100A4000CA7803883A401202164C234013430380AD
:100A50000B79048833409B02134A14401C430480E2
:100A60004D7904883540ED02104B1C402C43048026
:100A70008A790388324012030D4C234013430380CC
:100A8000CB7907221A4003885203DB04DB0C1343A3
:100A900003800B894380CB6843600B6983604B699B
:100AA000C360F0BDFFFCFFFFFFFBFFFFFFF7FFFF91
:100AB000FFEFFFFF427C0523052A0BD08369002B43
:100AC0000AD0DA68002A03D0DB68DA68002AFBD192
:100AD000D96000231800704781610023FAE7000005
:100AE00000B583B001AB80221A700A785A704A7838
:100AF0009A708A78DA701900014B984703B000BDEC
:100B000095230000F0B5CE46474680B583B005007A
:100B10000C00160029600B681C209B0704D503B04D
:100B20000CBC90469946F0BD0B681738DB07F6D42D
:100B300008004D4B994698474C4A116A831C01277F
:100B4000B8469F403B000B43136201A9737E0B70B4
:100B50000E30C3B21F001800454B98473800454B74
:100B60009847707E0021444B98472868C847070083
:100B70004249434B9847BF00424BFD50002324227B
:100B8000AB540132AB54EB84337E6B721023236081
:100B90002C683389EB80337C2B7280236A46137078
:100BA000002353706B4642469A7000236A46D37006
:100BB000F069356A00284BD06B46187002236A46EC
:100BC0005370000CC0B269462F4B9847002D44D09B
:100BD0006B461D7002236A4653702D0CE8B26946BD
:100BE000294B9847B37E8022002B04D1274B9B785A
:100BF0009B07DB0FDA012523F35C002B04D1802354
:100C00009B047169994202D180231B051A43206815
:100C1000736871690B432421715C89070B4326219A
:100C2000715CC9050B43034313432360728980231E
:100C30005B0013436360B3895B00F2895204134382
:100C4000727C1343327CD20313436362002066E755
:100C5000002120000E4B9847AEE7012120000C4BED
:100C600098470500B4E7C046751000000004004036
:100C70009D22000011220000690F0000D90C000025
:100C8000B1100000E0010020952300000020004189
:100C9000B50F000010B5931C9B00C31859602424A5
:100CA000035D012191400B43DBB2035510BD028D62
:100CB0000523002A01D0180070474B68C3620B88D7
:100CC00003850B88C38405323123C2540368023282
:100CD0009A750023EFE7000070B58000954BC4586B
:100CE00025682523E35C2422A65C1E402B7E9B07FF
:100CF00000D48AE0E38C9BB2228D93420DD0302346
:100D0000E35C002B09D13122A354E3842385B3078C
:100D10000BD523692000984707E0E38C9BB29A42E9
:100D200003D03023E35C012B20D06A8B43231A428B
:100D300004D01022123BE254B30622D4637A002B73
:100D400023D16B8B1B073FD501223023E25473075D
:100D500036D4E38C9BB2002B21D02568764B984784
:100D600000236B836B60754B984718E0002331229A
:100D7000A354E3842385F307D7D5E368200098477D
:100D8000D3E7236A20009847D8E725686A4B98473D
:100D900000236B838023DB026B60684B98472368DA
:100DA0001A7ED20701D501221A7602221A76246809
:100DB000614B9847002363836360604B984770BD25
:100DC000636920009847C4E700223023E2543307C8
:100DD0000ED4E38C9BB2002B0ED12568564B98475E
:100DE00000236B838023DB026B60544B9847D6E76C
:100DF000A36920009847ECE725684F4B98470023EC
:100E00006B836B604D4B9847C9E72B7EDB072ED574
:100E100001232B7604332B752033E35C5B0705D469
:100E20002523E35C082B01D002232B753123E35CDF
:100E30001E2BC4D03123E35C102BC0D00023312201
:100E4000A354E3842385B30703D53023E35C002B4D
:100E500009D0F307B3D53023E35C012BAFD1E368AE
:100E600020009847ABE7236920009847A7E72B7E2F
:100E70005B07A4D5238D002B1DD03022A25C012A54
:100E800012D0E38C9BB2002B99D03023E35C002B73
:100E900044D0E36A5A1CE2621B78DBB22822AB54CE
:100EA000238D013B23858AE7E28C92B29342E8D2FC
:100EB0006B8B5B07E5D500232385E3843033E35C4C
:100EC000002B17D11C4B984700236B838023DB0238
:100ED0006B601A4B98476A6880239B0213436B60D0
:100EE0001E223123E254F30600D468E7E3692000B0
:100EF000984764E7104B984700236B838023DB02FD
:100F00006B600E4B98476A6880239B0213436B60AB
:100F100031230022E2542D3B2B7550E7E26A531C2B
:100F2000E3622823EB5CDBB21370238D013B238546
:100F300045E7C046E0010020E51D0000251E000039
:100F400010B5490840230024814202D2180010BD88
:100F50001C00091A631C9BB28842F9D94023FF2C5C
:100F6000F4D814800023F1E710B582B004000E4BD2
:100F70001B78002B07D0002905D10B4B5B788342EF
:100F800010D01D200CE001A90C700D20074B9847D4
:100F90000D20074B9847044B5C7001221A7000200B
:100FA00002B010BD0020FBE7180100209D220000C8
:100FB00011220000204B984217D0204B984224D099
:100FC0001F4B984201D000207047012907D000290B
:100FD0002BD0022905D0032905D00020F4E71948B9
:100FE000F2E71948F0E71948EEE7012907D0002990
:100FF0001DD0022905D0032905D00020E4E71448BC
:10100000E2E71448E0E71448DEE7012907D00029A9
:101010000FD0022905D0032905D00020D4E70F48BE
:10102000D2E70F48D0E70F48CEE70F48CCE70F488C
:10103000CAE70F48C8E7C046000C00420010004253
:10104000000800420300050003000600030007003B
:101050000200170003001E0003001F00030017001A
:101060000300100003001900030004000200160032
:101070000300160030B585B001AA0B4B32CB32C24B
:101080000300019A82420CD0029A824207D00020CB
:10109000039A9A4201D005B030BD023002E001202F
:1010A00000E00020C0B2F6E7002900007047000011
:1010B00030B50A4B1B78002B0CD1094C094D25602B
:1010C000094B00221A6065605A60A5609A6001327F
:1010D000024B1A708000024BC15030BD1A01002033
:1010E0001C010020AD100000E001002010B582B00E
:1010F00001AC09232370013363700133A370024BE9
:101100009847205602B010BD7510000010B5024B74
:101110001B680020984710BD1C01002010B5024B31
:101120005B680120984710BD1C01002010B5024BE0
:101130009B680220984710BD1C010020F0B58BB0C1
:1011400005000C00160029600B681C209B0701D5C8
:101150000BB0F0BD0B681738DB07F9D408006F4BF4
:1011600098476F4A116A871C0123BB400B431362E7
:1011700009A92427F35D0B700E30C3B20193180048
:10118000684B98470198684B9847F05D0021674B82
:1011900098473378012B3FD03378002B03D1236855
:1011A0000822134323602B000C332900283100222E
:1011B00004C38B42FCD10023EB62AB620024AB86FC
:1011C0002B863633EC540133EC540133EC54353B6D
:1011D0006B722C712868514B984707005449554B46
:1011E0009847BF00544BFD502F6804AB80221A7003
:1011F0005C707F3A9A70DC703378002B02D1002249
:1012000004AB9A70B36A0593F36A0693336B079342
:10121000736B089300240BE023680C2213432360B4
:10122000BAE73800454B98470AE00134042C10D047
:10123000E1B2A30002AA0C201218D0580028F0D066
:10124000431CF2D004A90870000CC0B23C4B984774
:10125000EBE733786B71337CAB71B37CEB71337D2F
:101260002B72002202ABDA803378012B12D0337854
:10127000002B26D1B069B28B7B6AF17F0904B47F61
:101280002143194379622023F35C002B1BD04023B8
:101290001A4318E02868214B98470E30C0B2294BFA
:1012A0009847010002AB9A1DB069274B984703008D
:1012B0001720002B00D04BE702AB06331B783B73A3
:1012C000D5E7002200207368B1680B43F1680B4337
:1012D0000343317C0A43717C002903D11B4989787F
:1012E000890701D580210B43B17C002902D08021E0
:1012F00089020A43F17C002902D0802189000A4337
:10130000317D002902D0802189010A4339680B43CD
:101310003B607B681A437A60002019E77510000073
:10132000000400409D22000011220000690F00000F
:1013300051130000B1100000E0010020B50F0000C3
:1013400095230000B9220000410F00000020004159
:10135000F8B58000864BC45826683723E35C3622F4
:10136000A75C1F40337EB57D1D40EB072ED563790A
:10137000012B25D0002B29D1637A002B26D02168A0
:10138000E26A1378DBB2501CE062A079012800D138
:101390006BE09BB2DB05DB0D8B62A38E013B9BB246
:1013A000A386A38E9BB2002B10D101333375637AD1
:1013B000012B0BD1E379002B08D10233B37505E083
:1013C000637A002B40D0637A002BD8D16B0713D5FA
:1013D000738B5B0753D5637A012B08D01E22382309
:1013E000E254353B6372023333753B0743D4B36A2F
:1013F000738B042213437383AB0715D56379002BDA
:101400000ED107333375053B337601336372002306
:10141000A386238638330022E254FB0600D57FE002
:101420006379012B00D17FE02B0708D56379002B6E
:1014300005D1083333753376BB0600D58AE06DB22B
:10144000002D00DA8AE0F8BD4A4B1B88B362638E38
:10145000013B9BB26386638E9BB2002B01D10133AB
:1014600033756379012BAED084E7507800020343D3
:101470000232E2628EE72000A3699847B7E7637AF9
:10148000012B27D023689B6ADB05DB0DDAB2A16A4A
:101490000A70A26A511CA162A179012933D0238E5E
:1014A000013B9BB22386238E9BB2002BA4D100224A
:1014B0003833E254343B3375637A022B29D0637A94
:1014C000002B00D098E7BB0700D495E720002369E4
:1014D000984791E723689B6A638E013B9BB26386C2
:1014E000638E9BB2002B00D086E704333375002255
:1014F0003433E254353B6372FB0700D47CE72000B1
:10150000E368984778E71B0A5370A36A0133A36224
:10151000C5E77B0700D46FE72000636998476BE756
:101520002000E36998477BE7637A012B00D086E7C8
:10153000E379002B00D082E7023333750133637205
:1015400000223533E254FB0700D46DE72000E36846
:10155000984769E72000236A984770E7802333752E
:1015600033767B0600D46EE7636A200098476AE70B
:10157000E0010020EC01002010B51C000F4B984743
:10158000012C0FD0002C05D0022C0FD0032C11D031
:10159000002302E00A4B9847030032209842804122
:1015A000404210BD074B98470300F6E7064B9847AB
:1015B0000300F2E7054B98470300EEE70D1A000021
:1015C000551A0000651A0000751A0000851A0000FF
:1015D000084901230B70020E074B1A70020CD2B29D
:1015E0005A70020AD2B29A70C0B2D87000230B703F
:1015F0007047C04678010020C80200200D4B1B68D0
:10160000834207D000220C4B1A800A4B18600B4B08
:1016100018687047084B1B8801339BB2192B02D8FE
:10162000054A1380F1E70022034B1A80034B186030
:10163000EBE7C046340100202C01002030010020DF
:10164000F0B5DE4657464E464546E0B585B0002229
:1016500002ABDA7100239846002623E00134E4B29D
:101660000A35EDB2032C18D053461A784B46197838
:1016700038782300334EB04702ABD87107331B785C
:10168000002BEBD002ABDA1DDB79DBB2AB4041467D
:101690001943884600231370E0E7019E0136F6B235
:1016A000082E14D001231A00324027490A7072080C
:1016B0001A4026490A70B2081340254A1370B51C17
:1016C000EDB20024924689461F4F0196CCE70024D4
:1016D0001D4B99461D4F1E4B9B464546012210004F
:1016E00020404B4618706308110019403970A60855
:1016F00032405E463270DB00E318DBB298460323CB
:10170000104EB04702ABD87107331B78DBB24246AC
:1017100093401D430134E4B2062CDFD128000D4B69
:10172000984704000C4B1B68984201D00B4B98471C
:10173000094B1C6005B03CBC90469946A246AB469E
:10174000F0BDC046791500002801002029010020C5
:101750002A010020FD15000038010020D1150000ED
:1017600010B5104B1B6ADB0115D40F4B1B78002BF7
:1017700009D10E4A11780E4B197051785970917831
:101780009970D278DA700B4904230B80084B4B60B8
:10179000094B984710BD074B00221A80044A5A6033
:1017A000F8E7C0460044004178010020C80200204C
:1017B0003C010020F8010020AF0C000030B58BB0D8
:1017C00000226B461A7080239B03019301235B4226
:1017D00069460B8100234A81CA810B744B740592C0
:1017E0000B768B7624228B5401328B5401328B542E
:1017F00003236A464B760F338B810F4B07930F4BB6
:1018000008930F4D0F4928000F4B98472C68200074
:101810000E4B98471F2318401E3B83400C4A136011
:1018200029680322CB691A42FCD1236802221343A0
:1018300023600BB030BDC046030016000300170044
:101840000002002000100042050B0000ED10000017
:1018500000E100E010B5074C022207492000074BC9
:1018600098472522A35C04210B43A3542368233A01
:101870009A7510BD0002002061170000950C000051
:1018800010B58CB068461A4B98470220194B984700
:10189000194B186001236A465370802292006946F2
:1018A0004A80FB3AFF3A0A73C0225201CA813022B1
:1018B0000A716A468B74114C11492000114B9847EC
:1018C0002268537E5BB2002BFBDB802109020E4BAA
:1018D00019600F2393751376137802210B4313704D
:1018E000064B1A68537E5BB2002BFBDB0CB010BDBD
:1018F00045020000C1260000400100203402002003
:10190000002000428D02000000E100E030B583B00D
:1019100001AC012363700022A270237021000F200C
:10192000044DA84721001020A84721001120A847F6
:1019300003B030BDE10A000030B52D4B19684B7E75
:101940005BB2002BFBDB0B691F229343184308613A
:101950004B7E5BB2002BFBDB4B7E5BB2002BFBDBD9
:101960000B7B022213430B734B7E5BB2002BFBDB22
:1019700001200425022401E010420AD10B7EDBB2D3
:1019800002001A401D4200D022431C42F4D02A43D8
:10199000F2E70A7ED2B201231340500701D502209C
:1019A0000343920701D504221343DB0703D4114BF1
:1019B0001B68188830BD4B7E5BB2002BFBDB0D4BE8
:1019C0001B684A8B1A800A4B196801230B760A7E22
:1019D000D2B21340500701D502200343920701D52C
:1019E000042213435B07E2D502230B76DFE7C046F0
:1019F000340200204001002010B5024B9847024BF2
:101A0000984710BD811800000D190000002810D063
:101A1000802000020E4B986100290FD080214902DE
:101A20000B4B9961002A0ED180229202084B5A6119
:101A3000704780200002064B5861EDE78021490283
:101A4000034B5961EEE780229202014B9A61EFE766
:101A50000044004110B50020014B984710BDC0461E
:101A60003919000010B50420014B984710BDC0463D
:101A70003919000010B50320014B984710BDC0462E
:101A80003919000010B50220014B984710BDC0461F
:101A9000391900000122014B1A70704779010020AA
:101AA00000230A490022CA5401333C2BFBD10749C9
:101AB0008822CA540133602BFBD13C3B03490022EE
:101AC000CA5401333C2BFBD17047C046CC020020E6
:101AD00070B586B068461A4B9847022302256A46BD
:101AE00053709370174C69462000174B984701229A
:101AF0006B461A70002369464B708B70CB700A716D
:101B00008B71CB7105934B719C330B810F4B9C33C5
:101B100003930F4B04930F4E30000F4B9847310047
:101B200020000E4B98470E4BA360237C2B4323745D
:101B300022780C498B5C2B438B5406B070BDC04699
:101B40002D080000700200203D080000CC0200209B
:101B500028080042600200200D0A0000B50A0000BB
:101B6000951A00001001002070B58EB001256B465B
:101B70001D7000240194C0239B0303936B461C74C7
:101B80005C74DD741C7524236A46D4540C22002135
:101B900006A8154B984780235B050293134B0A93C5
:101BA000134B0B9301235B420C930D936B469C7478
:101BB000104B0693104E6A4610493000104B984760
:101BC000346820000F4B98471F23184085400E4B68
:101BD0001D603268D369002BFCD1236802221343B5
:101BE00023600EB070BDC046E726000002000E0064
:101BF00002000F00A02526008C02002000080042F1
:101C00003D110000ED10000000E100E010B5034BB5
:101C10009847034B9847034B984710BDA11A000003
:101C2000691B0000D11A0000F0B5D6464F46464663
:101C3000C0B582B082466B46DA1D00231370694638
:101C40008B7169464B7113701378DBB2032B00D98B
:101C500089E000236A46D11DC022944603276A46C4
:101C6000541D424E424D0A78087880465200604624
:101C700010415246527802404046381A4000024114
:101C8000D2B222702278D2B2B25CEA540133DBB213
:101C90000A780132D2B20A700A78D2B2032AE2D9A3
:101CA0006A460021D17107321278D2B2032A25D8B0
:101CB0006A46D11DC022944603276A46541D2B4E06
:101CC0002B4D0A78087880465200604610415246F3
:101CD000127802404046381A40000241D2B22270C7
:101CE0002278D2B2B25CEA540133DBB20A78013214
:101CF000D2B20A700A78D2B2032AE2D96A46002127
:101D0000D17107321278D2B2032A25D86A46D11D82
:101D1000C022944603276A46541D144E144D0A7877
:101D20000878804652006046104152469278024040
:101D30004046381A40000241D2B222702278D2B214
:101D4000B25CEA540133DBB20A780132D2B20A70D3
:101D50000A78D2B2032AE2D9054802B01CBC9046E8
:101D60009946A246F0BD00239AE7C0460C29000020
:101D700044010020F0B5C64600B506003C25124BD4
:101D80009846124C3000C04707000C370300281A51
:101D9000C2181978A1540133BB42F9D103360C356E
:101DA000602DEFD10A4B1B78002BFDD1094D0A4C59
:101DB0002800A0470028FBD00023054A1370074ADB
:101DC000137004BC9046F0BD291C0000CC0200201A
:101DD00050010020700200208509000079010020D8
:101DE000704700000C4B1B68002B06D1EFF31083EB
:101DF000002B07D00022094B1A70074A13680133E1
:101E00001360704772B6BFF35F8F0022044B1A70E5
:101E10000132024B1A70F0E75401002058010020F3
:101E200014000020084B1A68013A1A601B68002B46
:101E300009D1064B1B78002B05D00122044B1A70E8
:101E4000BFF35F8F62B67047540100205801002035
:101E50001400002010B5082803D880001C4B1B5824
:101E60009F46002032E01B4B18692FE01A4B1B6A7B
:101E70009B059B0F1948D84028E0164B586925E070
:101E8000144B1B6800209B0720D513491022CB68F8
:101E90001A42FCD00F4B1A6824231340042B01D0A4
:101EA0000F4813E000200F4B98470A4B9B681B0418
:101EB0001B0C58430AE05023074AD35C00205B0701
:101EC00004D5044BD86801E08020000210BDC04654
:101ED000102900005C0100200008004000127A0078
:101EE000006CDC02B922000070B50C490B6A047862
:101EF000857840780122104080014026B343034397
:101F00002A40D2018020834313430322224012023D
:101F10000348034013430B6270BDC04600080040F5
:101F2000FFFCFFFF082803D88000254B1B589F4665
:101F3000172044E0234A136A02210B431362002056
:101F40003DE0204A936902210B439361002036E073
:101F50001C4A138A02210B43138200202FE0194AE6
:101F6000938A02210B439382002028E016490B68D4
:101F7000022213430B60134B9A8419000E32CB6874
:101F80001A42FCD0104A91680E4BD96252689A628C
:101F900000229A8419001032CB681A42FCD00A4BF6
:101FA0001B689BB2074A9384002008E0054944223D
:101FB0008B5C022003438B54002000E0002070471C
:101FC00034290000000800405C01002030B585B0D5
:101FD000C222D2001A4B9A601A4A53681E218B43C0
:101FE000536001236A4613700024174DE0B269461E
:101FF000A8470134182CF9D103A800244470012506
:1020000085700470114B98470620114B9847114B6F
:102010009847114B1C725C729C72DC7201956B4686
:102020005C7006236A46137014725472694600206D
:102030000A4B984700200A4B984705B030BDC04670
:1020400000080040004000419D220000E91E000001
:10205000251F0000652000000004004089200000CA
:1020600041210000064A936908210B439361012234
:10207000044B1A7019000B781342FCD17047C0460C
:1020800000040040000C004070B5060004000D780C
:102090002D0205434B78002B02D08023DB021D4329
:1020A0004B7A002B02D080231B031D434868012874
:1020B00010D9431E184234D1022830D902230022FD
:1020C00001325B009842FBD8120232431400802395
:1020D0005B031D430B7A002B02D080239B031D431F
:1020E000134A53785BB2002BFBDB124B9847124B21
:1020F0001E700F4A53785BB2002BFBDB0C4B9C60CD
:102100001A0053785BB2002BFBDB094A536880212D
:1021100049020B401D435560084B984770BD002293
:10212000D2E70402344380239B021D43D2E7C0461A
:10213000000C0040E51D0000080C0040251E0000BA
:1021400010B504000B4A53785BB2002BFBDB0A4B43
:1021500098470A4B1C70074A53785BB2002BFBDB95
:10216000044A516880235B020B435360044B984739
:1021700010BDC046000C0040E51D0000040C0040EE
:10218000251E000070B504001A4A53785BB2002B7C
:10219000FBDB194B9847194B1C70164A53785BB2FE
:1021A000002BFBDB134E7068C004C00E144B984725
:1021B0000500124B1C707668F602F60F114B1C706E
:1021C0000C4A53785BB2002BFBDB0A4B9C68240261
:1021D000240C0D4B9847002E07D1012C07D9210064
:1021E00028000A4B9847050001E00134E54028002B
:1021F00070BDC046000C0040E51D0000040C00400E
:10220000551E0000080C0040251E0000612500003E
:1022100010B50400064B9847064B1C70064A5388BD
:102220008021C9010B435380044B984710BDC04621
:10223000E51D0000020C0040000C0040251E0000BF
:1022400010B504000F4B98470F4B1C700F4A538872
:102250001B05180F53880E490B40538053880D49B6
:102260000B40538011008022D2014B881342FCD1D5
:1022700006494A8803020648024013434B80064B36
:10228000984710BDE51D0000020C0040000C004006
:10229000FFF0FFFFFFBFFFFF251E000010B50C7809
:1022A00024020443024B9847A4B2024B5C8010BD49
:1022B00041220000000C004010B50400064B984776
:1022C000064B1C70064B5C882405240F054B984771
:1022D0002000054B984710BDE51D0000020C004092
:1022E000000C0040251E00008521000030B5D37889
:1022F000002B35D11378802B29D01B068024640253
:10230000234354780225AC4306D19478002C20D185
:102310008024A402234341605478013C012C1CD941
:102320000D042D0CA024E4052C431C4384620D0CE9
:10233000D02424062C431C438462D478002C22D160
:102340005B031CD59378012B1ED0416117E000235D
:10235000D7E7C024E4022343DDE70D4C2340DFE749
:1023600041600C04240CA023DB05234383620C0C86
:10237000D0231B0623438362D378002B03D15378E9
:10238000013B012B02D930BD8161F8E78160FAE79A
:10239000FFFFFBFF10B50A00C1090023002904D18B
:1023A0004309DB0105498C4663441F242040012179
:1023B00081401800024B984710BDC04600440041C0
:1023C000ED2200007047000010B5054B9847054B03
:1023D0009847054B9847054B9847054B984710BDC4
:1023E000CD1F0000E11D0000C5230000C523000033
:1023F000C5230000FEE7000010B5264A264B9A428E
:1024000011D01A00254B9A420DD2254A03339B1A4C
:102410009B0801339B0000221F481E498C588450A2
:1024200004329A42FAD11F4A1F4B9A420AD2D3432E
:102430001D495B1803218B4304339B18002102C202
:102440009342FCD1194AFF21194B8B439360FD390C
:1024500090235B00174AD150174B9A7B2E318A4349
:1024600020210A439A739A7B0C218A4308210A434C
:102470009A739A7B03218A4302210A439A730F4A73
:10248000536880210B4353600D4B98470D4B984781
:10249000FEE7C04678290000000000207C000020F4
:1024A00004000020800000202408002000ED00E04F
:1024B0000000000000700041004800410040004161
:1024C00079260000092500000300064A1268002A48
:1024D00004D0044A1068C318136070470249014AC7
:1024E0001160F6E774010020280C002000B583B0CD
:1024F00001A900230B708B704B701820014B98477B
:1025000003B000BDE10A000070B50B4B98470B4BC0
:1025100098470B4B98470B4B98470B4B98470B4BE7
:1025200098470B4B98470B4E0B4D0C4CB047A847A8
:102530000A20A047FAE7C046C9230000D9010000DD
:10254000F91900000D1C0000ED240000BD1700006B
:10255000551800007101000041160000190200002A
:10256000002243088B4274D303098B425FD3030AD2
:102570008B4244D3030B8B4228D3030C8B420DD3E5
:10258000FF22090212BA030C8B4202D31212090273
:1025900065D0030B8B4219D300E0090AC30B8B42B1
:1025A00001D3CB03C01A5241830B8B4201D38B035F
:1025B000C01A5241430B8B4201D34B03C01A524104
:1025C000030B8B4201D30B03C01A5241C30A8B4247
:1025D00001D3CB02C01A5241830A8B4201D38B0232
:1025E000C01A5241430A8B4201D34B02C01A5241D6
:1025F000030A8B4201D30B02C01A5241CDD2C30948
:102600008B4201D3CB01C01A524183098B4201D3C3
:102610008B01C01A524143098B4201D34B01C01AAE
:10262000524103098B4201D30B01C01A5241C30826
:102630008B4201D3CB00C01A524183088B4201D395
:102640008B00C01A524143088B4201D34B00C01A81
:102650005241411A00D20146524110467047FFE7ED
:1026600001B5002000F006F802BDC0460029F7D0F1
:1026700076E770477047C04670B500260C4D0D4C8C
:10268000641BA410A64209D1002600F065F90A4D8A
:102690000A4C641BA410A64205D170BDB300EB58D0
:1026A00098470136EEE7B300EB5898470136F2E75A
:1026B00064290000642900006429000068290000E2
:1026C00010B5034B0100186800F016F810BDC046A5
:1026D00018000020002310B59A4200D110BDCC5C38
:1026E000C4540133F8E703008218934200D17047C5
:1026F00019700133F9E70000032370B5CD1C9D4329
:10270000083506000C2D1ED20C25A9421DD830001C
:1027100000F062F8254A14682100002919D1244CE0
:102720002368002B03D1300000F044F8206029001A
:10273000300000F03FF8431C2CD10C2330003360F4
:1027400000F04BF803E0002DDFDA0C2333600020AB
:1027500070BD0B685B1B1AD40B2B03D90B60CC1814
:10276000256003E08C420ED163681360300000F0F6
:1027700034F8200007220B30231D9043C31AE7D002
:102780005A42E250E4E74B6863600C00EEE70C004D
:102790004968C2E70323C41C9C43A042E0D0211A2D
:1027A000300000F007F8431CDAD1C6E77C010020B6
:1027B00080010020002370B5064C0500080023604E
:1027C000FFF782FE431C03D12368002B00D02B604F
:1027D00070BDC046200800207047704756040000B6
:1027E000A2060000A2060000A2060000A206000049
:1027F000A2060000A2060000A2060000A206000039
:10280000A2060000A2060000A2060000A206000028
:10281000A2060000A2060000A20600003E0400007E
:10282000A2060000A2060000A2060000A206000008
:10283000A2060000A2060000A2060000A2060000F8
:10284000A2060000A2060000A2060000A2060000E8
:10285000A2060000A2060000A20600004E0400002E
:10286000A2060000A2060000A2060000A2060000C8
:10287000A2060000A2060000A2060000A2060000B8
:10288000A2060000A2060000A2060000A2060000A8
:10289000A2060000A2060000A206000046040000F6
:1028A0005E04000026040000360400002E04000030
:1028B000020000000300000004000000050000000A
:1028C00006000000070000000E0000000F000000DE
:1028D0000A0000000B000000FFFF0000FFFF0000E7
:1028E000FFFF0000FFFF0000FFFF0000FFFF0000F0
:1028F000FFFF0000FFFF0000FFFF0000FFFF0000E0
:1029000000080042000C004200100042888EE8EEF1
:10291000661E0000621E0000621E0000C81E00004D
:10292000C81E00007A1E00006C1E0000801E000001
:10293000B61E0000501F0000301F0000301F0000B6
:10294000BC1F0000421F00005E1F0000341F00007B
:102950006C1F0000AC1F0000F8B5C046F8BC08BCF6
:102960009E467047B5000000F8B5C046F8BC08BCEC
:082970009E4670478D00000037
:10297800401F0000080000000000000000000000E8
:1029880005000000010000001C00002000000000FD
:10299800000000000000000000000000000000002F
:1029A800000000000000000000000000000000001F
:1029B800000000000000000000000000000000000F
:1029C80000000000000000000000000000000000FF
:1029D80000000000000000000000000000000000EF
:0C29E800000000000000000000000000E3
:04000003000023F9DD
:00000001FF
